:03000000020124D6
:0C012400787FE4F6D8FD75812902016B9C
:1002570020200A00E0E08080FEFE8000F8F806FE1D
:10026700FE80C000000101017F7F01030F0F607F47
:030277007F010004
:1001B000C283D285C285D286C286C28422A2F79229
:1001C00080D281C281E5F025E0F5F00FEFC39408FD
:1001D00022D281C2810EEEC3941022C280D281C28B
:0601E00081D282C28222DE
:10027B00E4F5A8758E01758911C28CC28EC2A9C214
:04028B00ABC2A82238
:03020F0075080A65
:10021200758D3C758BAFD28EC28F308FFDC28F75BC
:100222008D3C758BAFD28E1508E508D3940050EA49
:0102320022A9
:0302330075090149
:10023600758DFC758B18D28EC28F308FFDC28F756F
:100246008DFC758B18D28E1509E509D3940050EAFA
:010256002285
:1001E600C280E4FFD281C2810FEFC3941040F5D2E2
:1001F60082C282D283E4FFD285C2850FEFC39410F8
:0902060040F5D286C286D28422A2
:1000030012027BC280C281C282C287C283D284C2EF
:1000130085C28620B72D1201E6D280E4FE1201D1FB
:1000230040FBD282C2821201B0120233D283E4FEB9
:10003300D285C2850E1201B6120233EEC3940F406D
:10004300EF80E31201E630B60201E1D280E4FE1252
:1000530001D140FBD282C2821201B012020FE4FE30
:10006300D2831201B20E12020FEEC3940F40F1D2EB
:1000730084C283E4FED285C285D286C2860EEEC3D5
:10008300941040F1E4FE1201DB0EEEC3940F40F630
:10009300D2801201DDC28475080A120212E4FE1234
:1000A30001DB75080A1202120EEEC3940F40F0C270
:1000B300841201E6D280E4FE1201D140FBD282C257
:1000C30082C283E4FED285C2850EEEC3941040F54E
:1000D3001201B67508141202121201E6014EE4FE73
:1000E300741A2EF8E6F5F0E4FF1201BD40FB740A22
:1000F3002EF8E6F5F0E4FF1201BD40FBD282C28286
:10010300EE7003FD80027D01ED24FF92831201B2A4
:10011300750901120236D2840EEEC3941040C180D9
:01012300BD1E
:10013000020003E493A3F8E493A34003F68001F2E2
:1001400008DFF48029E493A3F85407240CC8C333D0
:10015000C4540F4420C8834004F456800146F6DF9F
:10016000E4800B0102040810204080900257E47ED6
:10017000019360BCA3FF543F30E509541FFEE49394
:10018000A360010ECF54C025E060A840B8E493A35B
:10019000FAE493A3F8E493A3C8C582C8CAC583CA86
:1001A000F0A3C8C582C8CAC583CADFE9DEE780BE3E
:01027A000083
:00000001FF
