:0300000002172CB8
:0C172C00787FE4F6D8FD75816502177324
:100003000059230000E0F0180818F0E000000F1F6B
:100013003020301F0F00000000000000000000002F
:1000230000000000000000000000000000000000CD
:1000330000000000000000000000000000000000BD
:1000430000000000000000000000000000000000AD
:10005300000000000000000000000000000000009D
:10006300000000000000000000000000000000008D
:10007300000000000000000000000000000000007D
:10008300000000000000000000000000000000006D
:1000930000000000001010F8F8000000000020200D
:1000A3003F3F20200000000000000000000000008F
:1000B300000000000000000000000000000000003D
:1000C300000000000000000000000000000000002D
:1000D300000000000000000000000000000000001D
:1000E300000000000000000000000000000000000D
:1000F30000000000000000000000000000000000FD
:1001030000000000000000000000000000000000EC
:1001130000000000000000000000000000000000DC
:1001230000000000007078080888F870000030387C
:100133002C262331300000000000000000000000E6
:1001430000000000000000000000000000000000AC
:10015300000000000000000000000000000000009C
:10016300000000000000000000000000000000008C
:10017300000000000000000000000000000000007C
:10018300000000000000000000000000000000006C
:10019300000000000000000000000000000000005C
:1001A300000000000000000000000000000000004C
:1001B300000000000030388888C878300000183804
:1001C3002020311F0E00000000000000000000008E
:1001D300000000000000000000000000000000001C
:1001E300000000000000000000000000000000000C
:1001F30000000000000000000000000000000000FC
:1002030000000000000000000000000000000000EB
:1002130000000000000000000000000000000000DB
:1002230000000000000000000000000000000000CB
:1002330000000000000000000000000000000000BB
:10024300000000000000C0E030F8F80000000707DD
:1002530024243F3F240000000000000000000000B1
:10026300000000000000000000000000000000008B
:10027300000000000000000000000000000000007B
:10028300000000000000000000000000000000006B
:10029300000000000000000000000000000000005B
:1002A300000000000000000000000000000000004B
:1002B300000000000000000000000000000000003B
:1002C300000000000000000000000000000000002B
:1002D3000000000000F8F888888808080000193931
:1002E3002120311F0E00000000000000000000006C
:1002F30000000000000000000000000000000000FB
:1003030000000000000000000000000000000000EA
:1003130000000000000000000000000000000000DA
:1003230000000000000000000000000000000000CA
:1003330000000000000000000000000000000000BA
:1003430000000000000000000000000000000000AA
:10035300000000000000000000000000000000009A
:100363000000000000E0F0988898180000000F1FBC
:100373003120311F0E0000000000000000000000CB
:10038300000000000000000000000000000000006A
:10039300000000000000000000000000000000005A
:1003A300000000000000000000000000000000004A
:1003B300000000000000000000000000000000003A
:1003C300000000000000000000000000000000002A
:1003D300000000000000000000000000000000001A
:1003E300000000000000000000000000000000000A
:1003F3000000000000383808C8F838080000000082
:100403003F3F00000000000000000000000000006B
:1004130000000000000000000000000000000000D9
:1004230000000000000000000000000000000000C9
:1004330000000000000000000000000000000000B9
:1004430000000000000000000000000000000000A9
:100453000000000000000000000000000000000099
:100463000000000000000000000000000000000089
:100473000000000000000000000000000000000079
:10048300000000000070F8880888F87000001C3E27
:100493002321233E1C000000000000000000000098
:1004A3000000000000000000000000000000000049
:1004B3000000000000000000000000000000000039
:1004C3000000000000000000000000000000000029
:1004D3000000000000000000000000000000000019
:1004E3000000000000000000000000000000000009
:1004F30000000000000000000000000000000000F9
:1005030000000000000000000000000000000000E8
:100513000000000000E0F0180818F0E000000031CF
:100523003322331F0F000000000000000000000012
:1005330000000000000000000000000000000000B8
:1005430000000000000000000000000000000000A8
:100553000000000000000000000000000000000098
:100563000000000000000000000000000000000088
:100923000000000000FE2222FE0022DE425262DEB0
:10093300000000FC242424FCA6A6FC242424040098
:1009430000000020130A020B30000B32020A1320AE
:1009530000300F2022262A12122A262220200000ED
:100963001B1B00000000000000000000000000004E
:100973000000000000000000000000000000000074
:100983000000000000000000000000000000000064
:100993000000000000000000000000000000000054
:1009A3000000000000000000000000000000000044
:1009B3000000000000000000000000000000000034
:1009C3000000000000000000000000000000000024
:1009D3000000000000000000000000000000000014
:1009E3000000000000000000000000000000000004
:1009F30000000000000000000000000000000000F4
:100A030000000000000000000000000000000000E3
:100A130000000000000000000000000000000000D3
:100A230000000000000000000000000000000000C3
:100A330000000000000000000000000000000000B3
:100A430000000000000000000000000000000000A3
:100A53000000000000000000000000000000000093
:100A63000000000000000000000000000000000083
:100A73000000000000000000000000000000000073
:100A83000000000000000000000000000000000063
:100A93000000000000000000000000000000000053
:100AA3000000000000000000000000000000000043
:100AB3000000000000000000000000000000000033
:100AC3000000000000000000000000000000000023
:100AD300000000000000FC444444FC10901010107F
:100AE300FF1010100000F8010600F092929292F2AB
:100AF3000202FE00000000000007040404070000D7
:100B03000340807F0000000000FF00000007040492
:100B130004040740807F0000000036360000000018
:100B230000000000000000000000000000000000C2
:100B330000000000000000000000000000000000B2
:100B430000000000000000000000000000000000A2
:100B53000000000000000000000000000000000092
:100B63000000000000000000000000000000000082
:100B73000000000000000000000000000000000072
:100B83000000000000000000000000000000000062
:100B93000000000000000000000000000000000052
:100BA3000000000000000000000000000000000042
:100BB3000000000000000000000000000000000032
:100BC3000000000000000000000000000000000022
:100BD3000000000000000000000000000000000012
:100BE3000000000000000000000000000000000002
:100BF30000000000000000000000000000000000F2
:100C030000000000000000000000000000000000E1
:100C130000000000000000000000000000000000D1
:100C230000000000000000000000000000000000C1
:100C330000000000000000000000000000000000B1
:100C430000000000000000000000000000000000A1
:100C53000000000000000000000000000000000091
:100C63000000000000000000000000000000000081
:100C73000000000000000000000000000000000071
:100C83000000000000000000000000000000000061
:100C93000000000000000000000000000000000051
:100CA3000000000000000000000000000000000041
:100CB3000000000000000000000000000000000031
:100CC3000000000000000000000000000000000021
:100CD3000000000000000000000000000000000011
:100CE3000000000000000000000000000000000001
:100CF30000000000000000000000000000000000F1
:100D03000000000000007070700E0E0E0000000066
:100D130000000000000000000000000000000000D0
:100D2300000000000000000000000000004040C080
:100D330000000000000000000020203F2020023EB1
:100D4300023E023C00000000000000000000000022
:100D53000000000000000000000000000000000090
:100D63000000000000000000000000000000000080
:100D73000000000000000000000000000000000070
:100D83000000000000000000000000000000000060
:100D93000000000000000000000000000000000050
:100DA3000000000000000000000000000000000040
:100DB3000000000000000000000000000000000030
:100DC3000000000000000000000000000000000020
:100DD3000000000000000000000000000000000010
:0D0DE3000000000000000000000000000003
:0D1C1D000159000154000152000255000061
:1015D500E55693F54E121BC9E559C3952C22121AEF
:1015E50039AC4FAD50E4020FFA121BDCE554C3953C
:1015F5005222AB0EAA0DA90CA80B020F88AB12AA9A
:1016050011A910A80F020F8875510D121442121C52
:1016150059750A0122AF1DAE1CAD1BAC1AAB19AA38
:1016250018A917A81622121AA8121C59754E0F755B
:101635000A0722121442121C59750A0422A4FFAE8D
:10164500F0C3E5509FF550E54F9EF54F2275A0FF7D
:10165500C296D297C2B5D2B4D2B322C2B3D2B5C262
:10166500B48546A0D2B3228F15121AA80FEFD32244
:10167500AE4FAF507C000210E8121A66121BED7FC8
:10168500A3021A66121AA8050AE50AD3940622755A
:0516950027100219EF0F
:061A1200121830750904F2
:101A1800758D3C758BAFD28EC28F308FFDC28F759E
:101A28008D3C758BAFD28E1509E509D3940050EA29
:011A3800228B
:101A840012165220A7FDC2B3121664000000000013
:101A9400000000000000000000000000000000C280
:041AA400B3C2972210
:1019950075A0FFC297D29612165920A7FDC2B312A1
:1019A50016640000000000000000000000000000B8
:0B19B500000000000000C2B3C2962238
:101ACC0012165220A7FD1216600000000000000044
:101ADC0000000000000000000000000000C2B3C2C3
:021AEC0097223F
:1019C00075A0FFC297D29612165920A7FD12166075
:1019D0000000000000000000000000000000000007
:0919E00000000000C2B3C296220F
:091C59007546C0121A84021995A7
:0C1C2B0075463F121A84121995021C59CC
:0C1C3700E50A44B8F546121A840219951B
:101B8800E5154440F546E53FB40103121A84E52201
:071B9800B4010312199522AC
:101BB500854E46E53FB40103121ACCE522B4010374
:041BC5001219C0220F
:101AA800E515D3943F5008753F01E4F522800C7585
:101AB8002201E4F53F74C02515F515121C37121BD9
:041AC80088021BB5C0
:101AEE00E4FF121C59F54EF50AE4FF12166C947FB2
:0C1AFE0040F9050AE50AD3940740EE22E7
:1017B800E4FFF55C121C59754E03F50A12166C9479
:1017C8007F40F912162EE4F51512162B7515011225
:1017D800162B75157E12162B75157F121AA8121C5A
:1017E80059754E0C750A077F0212166C947D40F9E4
:1017F800121C59754EFFE4F515F50A12168940FBBF
:101808000515E4F50AE515D3940140EF121C597546
:101818004EFF7F7EE4F50A8F1512168940F90F8F67
:0818280015EFD3947F40ED227F
:0619E900752C09752710A2
:1019EF00E5275407FFD39400E527400C9FFF1313FF
:1019FF0013541F04F5528007131313541FF5528508
:031A0F0015582245
:101BC900121AA805590556E5567002055505588596
:031BD9005815227A
:101BDC000554050AE4F559C3E558952CF558F51547
:011BEC0022D6
:10144200E4F552F554F555F556F559E55170167512
:101452002C0975270D1219EF9000071215D540F8C7
:101462001215EE40F3E551B401101219E9900097FC
:101472001215D540F81215EE40F3E551B4021212DE
:1014820019E9E5569001271215D740F61215EE40DC
:10149200F1E551B403121219E9E5569001B712159C
:1014A200D740F61215EE40F1E551B404121219E9D3
:1014B200E5569002471215D740F61215EE40F1E5B7
:1014C20051B405121219E9E5569002D71215D74008
:1014D200F61215EE40F1E551B406121219E9E5567D
:1014E2009003671215D740F61215EE40F1E551B49C
:1014F20007121219E9E5569003F71215D740F612B2
:1015020015EE40F1E551B408121219E9E5569004BE
:10151200871215D740F61215EE40F1E551B40912C3
:101522001219E9E5569005171215D740F61215EE75
:1015320040F1E551B40A1D752C3812169474A72592
:1015420056F58274053555F583E41215D740EE122F
:1015520015EE40E9E551B40B20752C1F75270E12CC
:1015620019EF74272556F58274093555F583E4126F
:1015720015D740EE1215EE40E9E551B40C1D752C5D
:101582002312169474D92556F582740A3555F583BB
:10159200E41215D740EE1215EE40E9E551B40D18EC
:1015A200752C0375270D1219EFE556900D091215CA
:1015B200D740F61215EE40F1E551B40E15752C0C1C
:1015C200121694E556900D301215D740F61215EE0C
:0315D20040F122C3
:101B5800E4F5A8C295D295758E01758911C28CC21B
:081B68008EC2A9C2ABC2A82283
:101A3900E4F5A2759D0175BCC8FF0FBF1EFCE4F556
:101A4900BCAFBDEF75F004A4AEF0ADBE7C002DF5C2
:061A590050EC3EF54F22A7
:10169A00C3E55094E8E54F9403401BAE4FAF507C2E
:1016AA00037DE81210E88F5C7E007C037DE812104F
:1016BA00D61216468003E4F55CC3E5509464E54F00
:1016CA00940040107D64121675AA07EA75F0641238
:1016DA0016428002E4FAC3E550940AE54F940040AA
:1016EA00107D0A121675AB07EB75F00A12164280C6
:1016FA0002E4FBAE5012163B75153475510A1216E8
:10170A0038751534855C5112163875153E8A511292
:10171A0016387515488B511216387515528E5102A6
:02172A00144267
:10183000E5315470C4540FF9E531540FFEE54754B7
:1018400070C4540FFDE547540FFCE53A5430FFC413
:10185000540FFBE53A540FFA12161375151975510A
:101860000A1216107515198B511216107515238A48
:101870005112161075153012160D75153789511243
:1018800016107515418E5112161075154E12160D43
:101890007515558D5112161075155F8C5102144235
:051B0A00121B0FD29434
:101B0F0000000000000000000000000000000000C6
:051B1F0000000000229F
:101BED00C2AFD293D294121B0FC293121B0FC29489
:011BFD0022C5
:0F1C0E00C293C294121B0AD293121B0FD2AF22A1
:0B1C4300EF24FF9293121B0AC29422B0
:101B9F007F14D293121B0A309307DFFB121C0E80A7
:061BAF00F6C294021B0FB8
:071A5F00AC07121BED7FA292
:101A6600E4FEEF30E704D2938002C293EF25E0FF55
:0E1A7600D294121B0FC2940EBE08E7021B9FF3
:101B2400D293E4FED294EF25E0FFA293E43342077C
:0A1B3400C294121B0F0EBE08EB2234
:101BFE00121A5FAF04121A66AF05121A66021C0E95
:101B3E00AD07121A61AF0512167E121B24AE077F77
:0A1B4E0001121C43121C0EAF062208
:1018ED008B638A648965121A5FAF0412167EE4FC5D
:1018FD00ECC39D5022121B24AB63AA64A9658C8294
:10190D00758300EF1210B4ED14FFECC39F5005E486
:0F191D00FF121C430C80D97F01121C43021C0EC9
:101969007B007A00795C7D077F021218EDE55C54F3
:101979007FF540F547E55D547FF541F531E55E5466
:0C1989003FF542F53AE5605407F54322B3
:0B1C4E00121969E540700312196922A9
:101B70007B02AF03743E2BF8E6FD121BFE0BBB0588
:081B8000F1AD437F06021BFEDC
:10192C007F0A121B3EEF543F64086030E4FFEF90D7
:10193C00000393FE74402FF8A6060FBF04F0121B91
:10194C0070E4FDFF121BFE7D087F0A121BFE7D1248
:0D195C007F01121BFE7DF07F0D121BFE228D
:061C620012192C021C4EB9
:10114B00755C00755D141215E38F198E188D178C55
:10115B00161215E38F1D8E1C8D1B8C1A1215E38F27
:10116B00218E208D1F8C1E1215E38F268E258D242C
:10117B008C231215E38F2B8E2A8D298C281215E3C5
:10118B008F308E2F8D2E8C2D1215E38F358E348D47
:10119B00338C321215E38F398E388D378C3612150E
:1011AB00E38F3E8E3D8D3C8C3B1215E38F4D8E4C69
:1011BB008D4B8C4A12161A120F88500E851D0E85F8
:1011CB001C0D851B0C851A0B800C85190E85180DB3
:1011DB0085170C85160BAF21AE20AD1FAC1E12155B
:1011EB00F7500C85210E85200D851F0C851E0BAF2E
:1011FB0026AE25AD24AC231215F7500C85260E8593
:10120B00250D85240C85230BAF2BAE2AAD29AC28DD
:10121B001215F7500C852B0E852A0D85290C852868
:10122B000BAF30AE2FAD2EAC2D1215F7500C853009
:10123B000E852F0D852E0C852D0BAF35AE34AD33B2
:10124B00AC321215F7500C85350E85340D85330CE9
:10125B0085320BAF39AE38AD37AC361215F7500CB3
:10126B0085390E85380D85370C85360BAF3EAE3D77
:10127B00AD3CAC3B1215F7500C853E0E853D0D85F4
:10128B003C0C853B0BAF4DAE4CAD4BAC4A1215F73E
:10129B00500C854D0E854C0D854B0C854A0B12164B
:1012AB001A120F886010400E851D12851C11851BAC
:1012BB0010851A0F800C851912851811851710854A
:1012CB00160FAF21AE20AD1FAC1E121602600E40E2
:1012DB000C852112852011851F10851E0FAF26AEA0
:1012EB0025AD24AC23121602600E400C8526128508
:1012FB00251185241085230FAF2BAE2AAD29AC28E1
:10130B00121602600E400C852B12852A11852910AE
:10131B0085280FAF30AE2FAD2EAC2D121602600EFE
:10132B00400C853012852F11852E10852D0FAF3572
:10133B00AE34AD33AC32121602600E400C85351252
:10134B0085341185331085320FAF39AE38AD37ACDC
:10135B0036121602600E400C85391285381185370E
:10136B001085360FAF3EAE3DAD3CAC3B1216026066
:10137B000E400C853E12853D11853C10853B0FAF11
:10138B004DAE4CAD4BAC4A121602600E400C854D67
:10139B0012854C11854B10854A0F12161A120DF738
:1013AB00AB21AA20A91FA81E120DF7AB26AA25A9AF
:1013BB0024A823120DF7AB2BAA2AA929A828120DB2
:1013CB00F7AB30AA2FA92EA82D120DF7AB35AA34E7
:1013DB00A933A832120DF7AB39AA38A937A83612A0
:1013EB000DF7AB3EAA3DA93CA83B120DF7AB4DAA9E
:1013FB004CA94BA84A120DF7C004C005C006C00784
:10140B00AF12AE11AD10AC0FAB0EAA0DA90CA80B01
:10141B00120DF7A804A905AA06AB07D007D006D072
:10142B0005D004120DF3E4FBFAF97841120EEB121E
:07143B0010338E4F8F502289
:011C68002259
:1018A000E4F55B121B58E4F513C297C296C2B3125B
:1018B0001C2B121AEE1217B812163B75150A755129
:1018C0000B121442121C6212183012114B121C68B7
:1018D00012169A1217B8750904121A18121C6212FD
:0D18E0001A12121A12750904121A1880D774
:100DF00002109FE86480F8E933E83360110460F082
:100E0000ED33EC337009E8FCE9FDEAFEEBFF220468
:100E100060DED3EB9FEA9EE99DE8C2E78CF0C2F763
:100E200095F0400CE8CCF8E9CDF9EACEFAEBCFFB2F
:100E300012106A85D0F05804700320D5B3E804700E
:100E4000075002B2D50210A992D5EC0460F7E4CCA9
:100E5000C0E0C398F8603B94186008400DD0E0FBF8
:100E6000021081E4FBFAC9FC8028E830E406E4C9FA
:100E7000FBE4CAFCE830E305E4C9CACBFCE854074C
:100E80006010F8C3E913F9EA13FAEB13FBEC13FC57
:100E9000D8F130F52FC3E49CFCEF9BFFEE9AFEEDFA
:100EA00099FDD0E0FBEF4E4D4C701222DB03021097
:100EB000A6EC2CFCEF33FFEE33FEED33FDED30E717
:100EC000EB021081EF2BFFEE3AFEED39FDD0E0FB97
:100ED00050130BBB00030210A9ED13FDEE13FEEF40
:080EE00013FFEC13FC0210816A
:100EE8000210A9EC5D046005E85904700302109F24
:100EF80012106A580460F6EC4860F2EC7004FDFECB
:100F0800FF22C860DB2481C85009C39860025006DC
:100F18000210A69850CAF582E9294B4A7005AB829F
:100F280002109575F0007C1A7880C3EF9BEE9AED5D
:100F380099400DC3EF9BFFEE9AFEED99FDE842F054
:100F4800DC23ACF0D0E0FFD0E0FED0E0FDAB8220A7
:100F5800E7101BEB60BAEC2CFCEF33FFEE33FEED31
:100F680033FD021081E803F830E705C0F075F000A2
:100F7800EF2FFFEE33FEED33FD40B830E7C280AA15
:100F880074F8CC6480CCC86480C8F582046043C31C
:100F9800EB9FF5F0EA9E42F0E99D42F0E89C45F0AF
:100FA80060305018E5825FFFE582F42B5582FB50D4
:100FB800210ABA001D09B90019088016E5825BFBF1
:100FC800E582F42F5582FF50090EBE00050DBD00C5
:100FD800010CC3EB9FF5F0EA9E42F0E99D42F0E870
:0D0FE8009C45F06007CC4820E701B3EC22E7
:100FF50075F020800E75F010800575F0087D007E77
:10100500007F003392D530D50312113DEC334010EB
:10101500EF33FFEE33FEED33FDEC33FCD5F0ED227F
:0E102500E5F0247EA2D513CC92E7CDCEFF22BB
:10103300EDD2E7CD33EC3392D524814006E4FFFEB5
:10104300FDFC22FCE4CFCECDCC24E0501174FF8014
:10105300EDC3CC13CCCD13CDCE13CECF13CF0470B1
:07106300F030D5DE02113D63
:10106A00E9D2E7C933E833F892D5EDD2E7CD33ECCC
:07107A0033FC5002B2D52245
:10108100EC30E7100FBF000C0EBE00080DBD0004D0
:101091000BEB6014A2D5EB13FCED92E7FD2274FF7C
:1010A100FCFDFEFF22E480F8A2D574FF13FC7D80D5
:0310B100E480EFE9
:101738000218A0E493A3F8E493A34003F68001F20F
:1017480008DFF48029E493A3F85407240CC8C333B2
:10175800C4540F4420C8834004F456800146F6DF81
:10176800E4800B0102040810204080901C1DE47ED8
:10177800019360BCA3FF543F30E509541FFEE49376
:10178800A360010ECF54C025E060A840B8E493A33D
:10179800FAE493A3F8E493A3C8C582C8CAC583CA68
:1017A800F0A3C8C582C8CAC583CADFE9DEE780BE20
:011C2A0000B9
:1010B400F8BB010DE58229F582E5833AF583E8F072
:1010C400225006E92582C8F622BBFE05E92582C81E
:0210D400F22206
:1010D600EF8DF0A4A8F0CF8CF0A428CE8DF0A42E2E
:0210E600FE22E8
:1010E800BC000BBE0029EF8DF084FFADF022E4CCEC
:1010F800F875F008EF2FFFEE33FEEC33FCEE9DECB5
:10110800984005FCEE9DFE0FD5F0E9E4CEFD22EDFA
:10111800F8F5F0EE8420D21CFEADF075F008EF2F44
:10112800FFED33FD4007985006D5F0F222C398FD35
:051138000FD5F0EA22D2
:0E113D00C3E49FFFE49EFEE49DFDE49CFC22C3
:00000001FF
