:0300000002017288
:0C017200787FE4F6D8FD75810D02000EC8
:0B017E00758C3C758AAFD28CD2AF228A
:10016000E4F5A8758E01758911C28CC28ED2A9D210
:02017000AB22C0
:03000B00020115DA
:10011500C0E0C0D0C2AFC28CE508D3940040021540
:1001250008E508D39400400312017ED0D0D0E03218
:10014D0012017ED2A930B60A30B707E508D3940064
:03015D0050F3223A
:10006900E50D700375F041E50DB4010375F077E511
:100079000DB4020375F0C2E50DB4030375F052E542
:100089000DB4040375F074E50DB4050375F058E576
:100099000DB4060375F048E50DB4070375F073E573
:1000A9000DB4080375F040E50DB4090375F050224D
:1000F400C292E4FFFE0FBF00010EEF640A4E70F5DA
:10010400D292E4FEFF0FBF00010EEF640A4E70F5B9
:0101140022C8
:1000B900120069A2F092911200F4A2F19291120039
:1000C900F4A2F292911200F4A2F392911200F4A216
:1000D900F492911200F4A2F592911200F4A2F69210
:0B00E900911200F4A2F792910200F4C3
:1001350085090D1200B9850A0D1200B9850B0D123E
:0801450000B9850C0D0200B9A0
:10000E00E4FD120160E4F580F50CF50BF50AF50937
:10001E0012013520B62230B6FDE4FDAF058F0C8FF0
:10002E000B8F0A8F0912013575080612014D0DED61
:10003E00D39409500320B6E320B7D87580FF30B7AC
:10004E00FDE4FD75080612014DE58025E0F5800DF5
:0B005E00EDC3940850BD20B7EA80B845
:00000001FF
