:0300000002016892
:0C016800787FE4F6D8FD75810D02000ED2
:0B017400758C3C758AAFD28CD2AF2294
:10014400E4F5A8758E01758911C28CC28ED2A9D22C
:02015400AB22DC
:03000B00020111DE
:10011100C0E0C0D0C2AFC28CE508D3940040021544
:1001210008E508D394004003120174D0D0D0E03226
:10013100120174D2A930B60A30B707E508D394008A
:0301410050F32256
:10006500E50D700375F003E50DB4010375F09FE52B
:100075000DB4020375F025E50DB4030375F00DE528
:100085000DB4040375F099E50DB4050375F049E564
:100095000DB4060375F041E50DB4070375F01FE5D2
:1000A5000DB4080375F001E50DB4090375F00922D7
:1000F000C292E4FFFE0FBF00010EEF640A4E70F5DE
:10010000D292E4FEFF0FBF00010EEF640A4E70F5BD
:0101100022CC
:1000B500120065A2F092911200F0A2F19291120045
:1000C500F0A2F292911200F0A2F392911200F0A226
:1000D500F492911200F0A2F592911200F0A2F6921C
:0B00E500911200F0A2F792910200F0CF
:1001560085090D1200B5850A0D1200B5850B0D0235
:0201660000B5E2
:10000E00E4FD120144E4F580F50BF50AF509120141
:10001E005620B62030B6FDE4FDAF058F0B8F0A8F4C
:10002E00091201567508061201310DEDD3940950CF
:10003E000320B6E520B7DA7580FF30B7FDE4FD7515
:10004E000806120131E58025E0F5800DEDC3940818
:07005E0050BF20B7EA80BA91
:00000001FF
