:0300000002173AAA
:0C173A00787FE4F6D8FD75810702178166
:10000E0000E0F0180818F0E000000F1F3020301F3D
:10001E000F000000000000000000000000000000C3
:10002E0000000000000000000000000000000000C2
:10003E0000000000000000000000000000000000B2
:10004E0000000000000000000000000000000000A2
:10005E000000000000000000000000000000000092
:10006E000000000000000000000000000000000082
:10007E000000000000000000000000000000000072
:10008E000000000000000000000000000000000062
:10009E00001010F8F8000000000020203F3F202044
:1000AE000000000000000000000000000000000042
:1000BE000000000000000000000000000000000032
:1000CE000000000000000000000000000000000022
:1000DE000000000000000000000000000000000012
:1000EE000000000000000000000000000000000002
:1000FE0000000000000000000000000000000000F2
:10010E0000000000000000000000000000000000E1
:10011E0000000000000000000000000000000000D1
:10012E00007078080888F870000030382C262331CB
:10013E003000000000000000000000000000000081
:10014E0000000000000000000000000000000000A1
:10015E000000000000000000000000000000000091
:10016E000000000000000000000000000000000081
:10017E000000000000000000000000000000000071
:10018E000000000000000000000000000000000061
:10019E000000000000000000000000000000000051
:1001AE000000000000000000000000000000000041
:1001BE000030388888C87830000018382020311F69
:1001CE000E00000000000000000000000000000013
:1001DE000000000000000000000000000000000011
:1001EE000000000000000000000000000000000001
:1001FE0000000000000000000000000000000000F1
:10020E0000000000000000000000000000000000E0
:10021E0000000000000000000000000000000000D0
:10022E0000000000000000000000000000000000C0
:10023E0000000000000000000000000000000000B0
:10024E000000C0E030F8F8000000070724243F3F0C
:10025E00240000000000000000000000000000006C
:10026E000000000000000000000000000000000080
:10027E000000000000000000000000000000000070
:10028E000000000000000000000000000000000060
:10029E000000000000000000000000000000000050
:1002AE000000000000000000000000000000000040
:1002BE000000000000000000000000000000000030
:1002CE000000000000000000000000000000000020
:1002DE0000F8F88888880808000019392120311F95
:1002EE000E000000000000000000000000000000F2
:1002FE0000000000000000000000000000000000F0
:10030E0000000000000000000000000000000000DF
:10031E0000000000000000000000000000000000CF
:10032E0000000000000000000000000000000000BF
:10033E0000000000000000000000000000000000AF
:10034E00000000000000000000000000000000009F
:10035E00000000000000000000000000000000008F
:10036E0000E0F0988898180000000F1F3120311F10
:10037E000E00000000000000000000000000000061
:10038E00000000000000000000000000000000005F
:10039E00000000000000000000000000000000004F
:1003AE00000000000000000000000000000000003F
:1003BE00000000000000000000000000000000002F
:1003CE00000000000000000000000000000000001F
:1003DE00000000000000000000000000000000000F
:1003EE0000000000000000000000000000000000FF
:1003FE0000383808C8F83808000000003F3F0000F9
:10040E0000000000000000000000000000000000DE
:10041E0000000000000000000000000000000000CE
:10042E0000000000000000000000000000000000BE
:10043E0000000000000000000000000000000000AE
:10044E00000000000000000000000000000000009E
:10045E00000000000000000000000000000000008E
:10046E00000000000000000000000000000000007E
:10047E00000000000000000000000000000000006E
:10048E000070F8880888F87000001C3E2321233E77
:10049E001C00000000000000000000000000000032
:1004AE00000000000000000000000000000000003E
:1004BE00000000000000000000000000000000002E
:1004CE00000000000000000000000000000000001E
:1004DE00000000000000000000000000000000000E
:1004EE0000000000000000000000000000000000FE
:1004FE0000000000000000000000000000000000EE
:10050E0000000000000000000000000000000000DD
:10051E0000E0F0180818F0E0000000313322331F1D
:10052E000F000000000000000000000000000000AE
:10053E0000000000000000000000000000000000AD
:10054E00000000000000000000000000000000009D
:10055E00000000000000000000000000000000008D
:10056E00000000000000000000000000000000007D
:10092E00C8A89CEB8888884048F84F484848400043
:10093E004042CC0004E42424FF242424E4040000D8
:10094E00000000C0C0000000080804FF04040002FC
:10095E000B1222D20E02000040201F2048494543B0
:10096E007F4143454D404000000000303000000004
:10097E000000000000000000000000000000000069
:10098E000000000000000000000000000000000059
:10099E000000000000000000000000000000000049
:1009AE000000000000000000000000000000000039
:100BAE00000404F494949C97949494F40404000028
:100BBE001060018660044464554E4464C40404000D
:100BCE000000F848484848FF48484848F8000000E8
:100BDE000808C8FF48880800FE020202FE00000056
:100BEE002021EE040000FF29A9BFA9A901FF0000E2
:100BFE004042CC0004E42424FF242424E404000016
:100C0E004040407F4A4A4A4A4A4A4A7F4040400052
:100C1E000404FC0340300F00007F003F4040700092
:100C2E0000000F040404043F444444444F40700049
:100C3E00040300FF0041300C030000003F40780029
:100C4E0000001F8844300F000F04044F807F000007
:100C5E0040201F20484945437F4143454D404000B9
:100C6E000000000000000000000000000000000076
:100C7E000000000000000000000000000000000066
:100C8E000000000000000000000000000000000056
:100C9E000000000000000000000000000000000046
:101CBE0041001D00410019004100150042001A00AC
:011CCE000015
:101800003EF583E493900013F0121C09900006E06B
:10181000FF90001DE0C39F22121B75900015E0FF92
:10182000900019E0C39F22E0FF900017E4F0EFA3BF
:10183000F01214CF121CEF7404900001F09000031A
:1018400022FBFA90000FE0FCA3E0FDA3E0FEA3E082
:10185000FF22E4FFFE90000FE0F8A3E0F9A3E0FA16
:10186000A3E0FB021346C2B3D2B5C2B490000BE0B2
:10187000F5A0D2B322E0FF7E007C00121472AC0609
:10188000AD07E41213B8A804A905AA06AB07229075
:101890000003EFF01217C60FEFD3947F2275A0FF5D
:1018A000C296D297C2B5D2B4D2B3221217C6900054
:1018B00001E004F0E0D322F0A3F090000DF0A3F0DB
:1018C00022121CEF900013221211B190000F02148B
:0918D0009290001AE0FEA3E02250
:101BC10012189D20A7FDC2B312186A000000000080
:101BD100000000000000000000000000000000C242
:041BE100B3C29722D2
:101B210075A0FFC297D2961218A420A7FDC2B312C6
:101B3100186A000000000000000000000000000022
:0B1B4100000000000000C2B3C29622AA
:101C2C0012189D20A7FD121866000000000000008D
:101C3C0000000000000000000000000000C2B3C261
:021C4C009722DD
:101B4C0075A0FFC297D2961218A420A7FD12186692
:101B5C000000000000000000000000000000000079
:091B6C0000000000C2B3C2962281
:0C1CEF0090000B74C0F0121BC1021B21FE
:0F1CE00090000B743FF0121BC1121B21021CEF6E
:101CD000900001E044B890000BF0121BC1021B21E0
:101C4E00900003E0444090000BF0900008E0B401D7
:0F1C5E0003121BC1900004E0B40103121B2122EA
:101C6D00900013E090000BF0900008E0B401031217
:0D1C7D001C2C900004E0B40103121B4C224B
:1017C600900003E0D3943F500D9000087401F0E4BC
:1017D600900004F080129000047401F0E490000878
:1017E600F0900003E024C0F0121CD0121C4E021C24
:0117F6006D85
:101C8A00E4FF121CEFE4900013F0900001F0E4FF6F
:0D1C9A0012188F40FB1218AE940740F22282
:1019AB00E4FF90001FF01218C17403F0E4900001E3
:1019BB00F012188F40FB1218C17403F090000174E1
:1019CB0007F0E4FF12188F40FB1218C174FFF0E40C
:1019DB00900003F0900001F01218AB940640F990C0
:1019EB000003E004F0E4121839E0D3940140E9124B
:1019FB0018C174FFF07F7EE4900001F0900003EFBC
:101A0B00F01218AB940640F40F900003EFF0D39450
:041A1B007F40E42202
:0C1AE6007409900006F07410900005F0E8
:101AF200900005E0FF5407FED39400400BEF9EFFD9
:101B0200131313541F04800A900005E0FF131313EC
:0F1B1200541F900015F0900003E090001CF0228B
:101C09001217C690001DE004F090001BE004F0706C
:101C19000690001AE004F090001CE004F0E0900047
:031C290003F022A3
:101B7500900019E004F0900001E004F0E490001DED
:101B8500F090001CE0FF900006E0FEC3EF9E900081
:071B95001CF0900003F02298
:1014CF00E4900015F0900019F0A3F0A3F090001D28
:1014DF00F0900017E07002A3E0701D9000067409F1
:1014EF00F0740D121AEE90001AA3E090000E12186D
:1014FF000440F312181840EE900017E07004A3E0B8
:10150F0064017015121AE690001AA3E090009E1263
:10151F00180440F312181840EE900017E07004A35F
:10152F00E064027015121AE690001AA3E090012EE3
:10153F0012180440F312181840EE900017E07004D0
:10154F00A3E064037015121AE690001AA3E090014D
:10155F00BE12180440F312181840EE900017E070F6
:10156F0004A3E064047015121AE690001AA3E09029
:10157F00024E12180440F312181840EE900017E0B4
:10158F007004A3E064057015121AE690001AA3E028
:10159F009002DE12180440F312181840EE90001754
:1015AF00E07004A3E064067015121AE690001AA307
:1015BF00E090036E12180440F312181840EE9000DA
:1015CF0017E07004A3E064077015121AE690001A72
:1015DF00A3E09003FE12180440F312181840EE9087
:1015EF000017E07004A3E064087015121AE690006B
:1015FF001AA3E090048E12180440F312181840EE4C
:10160F00900017E07004A3E064097015121AE690B9
:10161F00001AA3E090051E12180440F31218184088
:10162F00EE900017E07004A3E0640A70187438128B
:10163F001AE81218D124AEF582740512180040F280
:06164F0012181840ED2204
:101A8C00E4900015F090001AF0A3F0900019F0907B
:101A9C00001DF0900014E06401701B900006742887
:101AAC00121AEB1218D1242EF58274091218004068
:101ABC00F212181840ED900014E06403701B9000B3
:101ACC00067460121AEB1218D124AEF582740B1244
:0A1ADC00180040F212181840ED2225
:1018D9007DFA7C43121852600C400A90000F1214D2
:1018E9009E43FA00007DC87C42121852E4403279C6
:1018F900C878421218411212A91213F190001FEF71
:10190900F0121843C004C005C006C00790001F7D2F
:1019190064121875D007D006D005D0041218C880F3
:101929000490001FF0E4FFFE7D207C41121855E46D
:101939004032792078411218411212A91213F190FC
:101949000020EFF0121843C004C005C006C007907C
:1019590000207D0A121875D007D006D005D00412D0
:1019690018C88004900020F01218431213F1AD0733
:10197900121834743CF0900017E4F0740A12182F0E
:10198900743CF090001F1218277446F09000201242
:1019990018277450F0AF05900017E4F0A3EFF00298
:0219A90014CF59
:101BE500758D3C758BAFD28EC28F308FFDC28F75D0
:101BF5008D3C758BAFD28E90000CE014F0E0D39441
:041C05000050E72282
:03000300021B9C41
:101B9C00C0E0C083C082C2A8C28990000EE004F0ED
:101BAC00700690000DE004F0D2A8B284C289D082F5
:051BBC00D083D0E032EF
:03000B00021A1FB7
:101A1F00C0E0C0F0C083C082C0D075D000C28CC2FD
:101A2F00A9758CFF2093059000078003900000E0BC
:101A3F00F58AC390000AE09494900009E094115045
:101A4F000EA3E004F07025900009E004F0801D90D3
:101A5F00000EE025E0FD90000DE033FCE41213B81A
:101A6F001218CBB283900009E41218B7B293D28C3C
:0D1A7F00D2A9D0D0D082D083D0F0D0E032F8
:101CA700C2AFC295D295758E01758911C28CC28E4D
:071CB700C2A9C2ABC2A822C2
:10165500121CA7E4F580C297C296C2B3121CE01211
:101665001C8A1219AB121CEF7401121839740FF091
:101675009000147403F0121A8C121834740FF09041
:1016850000147401F0121A8C7580FF90000F12146B
:101695009E000000001218D9C29390000C740AF045
:1016A500121BE5900007749BF0900000F0E4900099
:1016B500091218B7758CFF758A9BD28CD288D2AF68
:1016C500D2A8D2A9C28990001E1218B920B61290CC
:1016D5000007E0C394FA5009E004F0900000E0141C
:1016E500F0900007E0C394FA4004C2878002D287D5
:1016F500900000E0C394C84004C2808002D280906C
:10170500000C7401F0121BE590001EE0C394145008
:1017150005E004F08008E490001EF01218D920B707
:10172500AB900000E0C394C850A2E004F09000071D
:05173500E014F08097B4
:1011AE0002145DE86480F8E933E83360110460F0FE
:1011BE00ED33EC337009E8FCE9FDEAFEEBFF2204A7
:1011CE0060DED3EB9FEA9EE99DE8C2E78CF0C2F7A2
:1011DE0095F0400CE8CCF8E9CDF9EACEFAEBCFFB6E
:1011EE0012142885D0F05804700320D5B3E804708B
:1011FE00075002B2D502146792D5EC0460F7E4CC26
:10120E00C0E0C398F8603B94186008400DD0E0FB36
:10121E0002143FE4FBFAC9FC8028E830E406E4C976
:10122E00FBE4CAFCE830E305E4C9CACBFCE854078A
:10123E006010F8C3E913F9EA13FAEB13FBEC13FC95
:10124E00D8F130F52FC3E49CFCEF9BFFEE9AFEED38
:10125E0099FDD0E0FBEF4E4D4C701222DB030214D1
:10126E0064EC2CFCEF33FFEE33FEED33FDED30E797
:10127E00EB02143FEF2BFFEE3AFEED39FDD0E0FB13
:10128E0050130BBB0003021467ED13FDEE13FEEFBC
:08129E0013FFEC13FC02143FE6
:1012A600021467EC5D046005E85904700302145DDE
:1012B600121428580460F6EC4860F2EC7004FDFE47
:1012C600FF22C860DB2481C85009C398600250061B
:1012D6000214649850CAF582E9294B4A7005AB821C
:1012E60002145375F0007C1A7880C3EF9BEE9AEDDA
:1012F60099400DC3EF9BFFEE9AFEED99FDE842F093
:10130600DC23ACF0D0E0FFD0E0FED0E0FDAB8220E5
:10131600E7101BEB60BAEC2CFCEF33FFEE33FEED6F
:1013260033FD02143FE803F830E705C0F075F0001E
:10133600EF2FFFEE33FEED33FD40B830E7C280AA53
:1013460074F8CC6480CCC86480C8F582046043C35A
:10135600EB9FF5F0EA9E42F0E99D42F0E89C45F0ED
:1013660060305018E5825FFFE582F42B5582FB5012
:10137600210ABA001D09B90019088016E5825BFB2F
:10138600E582F42F5582FF50090EBE00050DBD0003
:10139600010CC3EB9FF5F0EA9E42F0E99D42F0E8AE
:0D13A6009C45F06007CC4820E701B3EC2225
:1013B30075F020800E75F010800575F0087D007EB5
:1013C300007F003392D530D503121484EC334010E0
:1013D300EF33FFEE33FEED33FDEC33FCD5F0ED22BE
:0E13E300E5F0247EA2D513CC92E7CDCEFF22FA
:1013F100EDD2E7CD33EC3392D524814006E4FFFEF4
:10140100FDFC22FCE4CFCECDCC24E0501174FF8052
:10141100EDC3CC13CCCD13CDCE13CECF13CF0470EF
:07142100F030D5DE02148457
:10142800E9D2E7C933E833F892D5EDD2E7CD33EC0A
:0714380033FC5002B2D52283
:10143F00EC30E7100FBF000C0EBE00080DBD00040E
:10144F000BEB6014A2D5EB13FCED92E7FD2274FFBA
:10145F00FCFDFEFF22E480F8A2D574FF13FC7D8013
:03146F00E480EF27
:10174600021655E493A3F8E493A34003F68001F24E
:1017560008DFF48029E493A3F85407240CC8C333A4
:10176600C4540F4420C8834004F456800146F6DF73
:10177600E4800B0102040810204080901CBEE47E29
:10178600019360BCA3FF543F30E509541FFEE49368
:10179600A360010ECF54C025E060A840B8E493A32F
:1017A600FAE493A3F8E493A3C8C582C8CAC583CA5A
:1017B600F0A3C8C582C8CAC583CADFE9DEE780BE12
:011CCF000014
:10147200EF8DF0A4A8F0CF8CF0A428CE8DF0A42E8E
:02148200FE2248
:0E148400C3E49FFFE49EFEE49DFDE49CFC2279
:0C149200ECF0A3EDF0A3EEF0A3EFF022CD
:10149E00A8828583F0D083D0821214B51214B512AF
:1014AE0014B51214B5E473E493A3C583C5F0C583D4
:1014BE00C8C582C8F0A3C583C5F0C583C8C582C898
:0114CE0022FB
:00000001FF
