:0300000002303398
:0C303300787FE4F6D8FD75810702307A42
:10000E0000E0F8FC7E0F03010103073EFCF8F080D0
:10001E00FFFFFFFF0000000000000000FFFFFFFFDA
:10002E00030F3F7FFCE080000080C0F87F3F1F037E
:10003E0000000000000101010101010000000000AC
:10004E0000000000000000000000000000000000A2
:10005E000000000000000000000000000000000092
:10006E000000000000000000000000000000000082
:10007E000000000000000000000000000000000072
:10008E000000000000000000000000000000000062
:10009E000000000000000000000000000000000052
:1000AE000000000000000000000000000000000042
:1000BE000000000000000000000000000000000032
:1000CE000000000000000000000000000000000022
:1000DE000000000000000000000000000000000012
:1000EE000000000000000000000000000000000002
:1000FE0000000000000000000000000000000000F2
:10010E0000000000000000000000000000000000E1
:10011E0000000000000000000000000000000000D1
:10012E0000000000000000000000000000000000C1
:10013E0000000000000000000000000000000000B1
:10014E0000000000000000000000000000000000A1
:10015E000000000000000000000000000000000091
:10016E000000000000000000000000000000000081
:10017E000000000000000000000000000000000071
:10018E000000000000000000000000000000000061
:10019E00000004040404FCFEFFFF00000000000049
:1001AE00000000000000FFFFFFFF00000000000045
:1001BE00000000000080FFFFFFFF80000000000035
:1001CE000000010101010101010101010101000015
:1001DE000000000000000000000000000000000011
:1001EE000000000000000000000000000000000001
:1001FE0000000000000000000000000000000000F1
:10020E0000000000000000000000000000000000E0
:10021E0000000000000000000000000000000000D0
:10022E0000000000000000000000000000000000C0
:10023E0000000000000000000000000000000000B0
:10024E0000000000000000000000000000000000A0
:10025E000000000000000000000000000000000090
:10026E000000000000000000000000000000000080
:10027E000000000000000000000000000000000070
:10028E000000000000000000000000000000000060
:10029E000000000000000000000000000000000050
:1002AE000000000000000000000000000000000040
:1002BE000000000000000000000000000000000030
:1002CE000000000000000000000000000000000020
:1002DE000000000000000000000000000000000010
:1002EE000000000000000000000000000000000000
:1002FE0000000000000000000000000000000000F0
:10030E0000000000000000000000000000000000DF
:10031E0000000000000000000000000000000000CF
:10032E00F8FCFEC603010101010307FEFEFCF0000E
:10033E0000000000000080C0E0783E1F0F070100A3
:10034E00C0E0F0B89E8F838180808080E0F87800D6
:10035E000101010101010101010101010101000081
:10036E00000000000000000000000000000000007F
:10037E00000000000000000000000000000000006F
:10038E00000000000000000000000000000000005F
:10039E00000000000000000000000000000000004F
:1003AE00000000000000000000000000000000003F
:1003BE00000000000000000000000000000000002F
:1003CE00000000000000000000000000000000001F
:1003DE00000000000000000000000000000000000F
:1003EE0000000000000000000000000000000000FF
:1003FE0000000000000000000000000000000000EF
:10040E0000000000000000000000000000000000DE
:10041E0000000000000000000000000000000000CE
:10042E0000000000000000000000000000000000BE
:10043E0000000000000000000000000000000000AE
:10044E00000000000000000000000000000000009E
:10045E00000000000000000000000000000000008E
:10046E00000000000000000000000000000000007E
:10047E00000000000000000000000000000000006E
:10048E00000000000000000000000000000000005E
:10049E00000000000000000000000000000000004E
:1004AE00000000000000000000000000000000003E
:1004BE0000787C7E76030101010307FEFEFCF80046
:1004CE000000000000000808081C1E77F3E3C000BF
:1004DE0000387CFCDC800000008080E0FF7F3F1F46
:1004EE0000000000000101010101010000000000F8
:1004FE0000000000000000000000000000000000EE
:10050E0000000000000000000000000000000000DD
:10051E0000000000000000000000000000000000CD
:10052E0000000000000000000000000000000000BD
:10053E0000000000000000000000000000000000AD
:10054E00000000000000000000000000000000009D
:10055E00000000000000000000000000000000008D
:10056E00000000000000000000000000000000007D
:10057E00000000000000000000000000000000006D
:10058E00000000000000000000000000000000005D
:10059E00000000000000000000000000000000004D
:1005AE00000000000000000000000000000000003D
:1005BE00000000000000000000000000000000002D
:1005CE00000000000000000000000000000000001D
:1005DE00000000000000000000000000000000000D
:1005EE0000000000000000000000000000000000FD
:1005FE0000000000000000000000000000000000ED
:10060E0000000000000000000000000000000000DC
:10061E0000000000000000000000000000000000CC
:10062E0000000000000000000000000000000000BC
:10063E0000000000000000000000000000000000AC
:10064E0000000000000080C0F038FEFFFF00000038
:10065E000080C0F0380E07010000FFFFFF00000011
:10066E0002030302020202020202FFFFFF02020263
:10067E000000000000000001010101010101010163
:10068E00000000000000000000000000000000005C
:10069E00000000000000000000000000000000004C
:1006AE00000000000000000000000000000000003C
:1006BE00000000000000000000000000000000002C
:1006CE00000000000000000000000000000000001C
:1006DE00000000000000000000000000000000000C
:1006EE0000000000000000000000000000000000FC
:1006FE0000000000000000000000000000000000EC
:10070E0000000000000000000000000000000000DB
:10071E0000000000000000000000000000000000CB
:10072E0000000000000000000000000000000000BB
:10073E0000000000000000000000000000000000AB
:10074E00000000000000000000000000000000009B
:10075E00000000000000000000000000000000008B
:10076E00000000000000000000000000000000007B
:10077E00000000000000000000000000000000006B
:10078E00000000000000000000000000000000005B
:10079E00000000000000000000000000000000004B
:1007AE00000000000000000000000000000000003B
:1007BE00000000000000000000000000000000002B
:1007CE00000000000000000000000000000000001B
:1007DE000000C0FF3F0303030303030303030303EC
:1007EE0000001F1F1C0406020202061EFCFCF8E09D
:1007FE0000387CFC9C800000008080E0FF7F3F0F73
:10080E0000000000000101010101010100000000D3
:10081E0000000000000000000000000000000000CA
:10082E0000000000000000000000000000000000BA
:10083E0000000000000000000000000000000000AA
:10084E00000000000000000000000000000000009A
:10085E00000000000000000000000000000000008A
:10086E00000000000000000000000000000000007A
:10087E00000000000000000000000000000000006A
:10088E00000000000000000000000000000000005A
:10089E00000000000000000000000000000000004A
:1008AE00000000000000000000000000000000003A
:1008BE00000000000000000000000000000000002A
:1008CE00000000000000000000000000000000001A
:1008DE00000000000000000000000000000000000A
:1008EE0000000000000000000000000000000000FA
:1008FE0000000000000000000000000000000000EA
:10090E0000000000000000000000000000000000D9
:10091E0000000000000000000000000000000000C9
:10092E0000000000000000000000000000000000B9
:10093E0000000000000000000000000000000000A9
:10094E000000000000000000000000000000000099
:10095E000000000000000000000000000000000089
:10096E0000E0F0FC3E0E03030101011F1F1E1C00E0
:10097E00FFFFFFFF380C06020202061EFCFCF8E029
:10098E00031F7FFFF8C08000000080E0FF7F3F0F55
:10099E000000000000010101010101010000000042
:1009AE000000000000000000000000000000000039
:1009BE000000000000000000000000000000000029
:1009CE000000000000000000000000000000000019
:1009DE000000000000000000000000000000000009
:1009EE0000000000000000000000000000000000F9
:1009FE0000000000000000000000000000000000E9
:100A0E0000000000000000000000000000000000D8
:100A1E0000000000000000000000000000000000C8
:100A2E0000000000000000000000000000000000B8
:100A3E0000000000000000000000000000000000A8
:100A4E000000000000000000000000000000000098
:100A5E000000000000000000000000000000000088
:100A6E000000000000000000000000000000000078
:100A7E000000000000000000000000000000000068
:100A8E000000000000000000000000000000000058
:100A9E000000000000000000000000000000000048
:100AAE000000000000000000000000000000000038
:100ABE000000000000000000000000000000000028
:100ACE000000000000000000000000000000000018
:100ADE000000000000000000000000000000000008
:100AEE0000000000000000000000000000000000F8
:100AFE0000383F0F070303030303C3F37B1F0703F2
:100B0E0000000000000080E0FC3F07010000000034
:100B1E000000000000F8FFFFFF00000000000000D2
:100B2E0000000000000101010100000000000000B3
:100B3E0000000000000000000000000000000000A7
:100B4E000000000000000000000000000000000097
:100B5E000000000000000000000000000000000087
:100B6E000000000000000000000000000000000077
:100B7E000000000000000000000000000000000067
:100B8E000000000000000000000000000000000057
:100B9E000000000000000000000000000000000047
:100BAE000000000000000000000000000000000037
:100BBE000000000000000000000000000000000027
:100BCE000000000000000000000000000000000017
:100BDE000000000000000000000000000000000007
:100BEE0000000000000000000000000000000000F7
:100BFE0000000000000000000000000000000000E7
:100C0E0000000000000000000000000000000000D6
:100C1E0000000000000000000000000000000000C6
:100C2E0000000000000000000000000000000000B6
:100C3E0000000000000000000000000000000000A6
:100C4E000000000000000000000000000000000096
:100C5E000000000000000000000000000000000086
:100C6E000000000000000000000000000000000076
:100C7E000000000000000000000000000000000066
:100C8E0000F0FCFEFE87030101010307FEFEFCF0EF
:100C9E0000C0E3E7FF3F1F1E3C78FCFEF7E7C300F2
:100CAE001F3F7FFFE0800000000080C1FFFF7F1F1D
:100CBE00000000000001010101010101000000001F
:100CCE000000000000000000000000000000000016
:100CDE000000000000000000000000000000000006
:100CEE0000000000000000000000000000000000F6
:100CFE0000000000000000000000000000000000E6
:100D0E0000000000000000000000000000000000D5
:100D1E0000000000000000000000000000000000C5
:100D2E0000000000000000000000000000000000B5
:100D3E0000000000000000000000000000000000A5
:100D4E000000000000000000000000000000000095
:100D5E000000000000000000000000000000000085
:100D6E000000000000000000000000000000000075
:100D7E000000000000000000000000000000000065
:100D8E000000000000000000000000000000000055
:100D9E000000000000000000000000000000000045
:100DAE000000000000000000000000000000000035
:100DBE000000000000000000000000000000000025
:100DCE000000000000000000000000000000000015
:100DDE000000000000000000000000000000000005
:100DEE0000000000000000000000000000000000F5
:100DFE0000000000000000000000000000000000E5
:100E0E0000000000000000000000000000000000D4
:100E1E00E0F8FCFE0F0301010103031EFEFCF0C00F
:100E2E000F3F7F7FF0C0808080C06038FFFFFFFFE4
:100E3E000070F0F0F000000080C0F07E3F1F070051
:100E4E00000000010101010101010000000000008D
:100E5E000000000000000000000000000000000084
:100E6E000000000000000000000000000000000074
:100E7E000000000000000000000000000000000064
:100E8E000000000000000000000000000000000054
:100E9E000000000000000000000000000000000044
:100EAE000000000000000000000000000000000034
:100EBE000000000000000000000000000000000024
:100ECE000000000000000000000000000000000014
:100EDE000000000000000000000000000000000004
:100EEE0000000000000000000000000000000000F4
:100EFE0000000000000000000000000000000000E4
:100F0E0000000000000000000000000000000000D3
:100F1E0000000000000000000000000000000000C3
:100F2E0000000000000000000000000000000000B3
:100F3E0000000000000000000000000000000000A3
:100F4E000000000000000000000000000000000093
:100F5E000000000000000000000000000000000083
:100F6E000000000000000000000000000000000073
:100F7E000000000000000000000000000000000063
:100F8E000000000000000000000000000000000053
:100F9E000000000000000000000000000000000043
:100FAE00FEFEFE3E0E060200101010FF90509888B6
:100FBE0088E98E88889888000070880808083800AC
:100FCE00F80800F80008F800001010F80000000003
:100FDE00088868FF2848008868090E08A848880015
:100FEE00000C04555555857F85555555050C040047
:100FFE0002060E3EFEFEFE7F7F7F7C70604000028A
:10100E0042817F00404026251808163160200000DE
:10101E0038202121221C00033C0700073C0300005E
:10102E0020203F20200000020100FF004042212628
:10103E0018182661C040000404040A0A092ACC28A4
:10104E00190902060202004060707C7F7F7F00005B
:10105E000000000000000000000000000000000082
:10106E000000000000000000000000000000000072
:10107E000000000000000000000000000000000062
:10108E000000000000000000000000000000000052
:1020CE0000000000000000000070FCFEFE03010195
:1020DE000103FFFEFE7307070090BDFF7F66646479
:1020EE0064E6E7C3C1C08000060F1F1F30302020FA
:1020FE00202030301F1F0F070000000000000000DE
:10210E0000000000000000000000000000000000C1
:10211E0000000000000000000000000000000000B1
:10212E0000000000000000000000000000000000A1
:10213E000000000000000000000000000000000091
:10214E000000000000000000000000000000000081
:10215E000000000000000000000000000000000071
:10216E000000000000000000000000000000000061
:10217E000000000000000000000000000000000051
:10218E000000000000000000000000000000000041
:10219E000000000000000000000000000000000031
:1021AE000000000000000000000000000000000021
:1021BE000000000000000000000000000000000011
:1021CE000000000000000000000000000000000001
:1021DE0000000000000000000000000000000000F1
:1021EE0000000000000000000000000000000000E1
:1021FE0000000000000000000000000000000000D1
:10220E0000000000000000000000000000000000C0
:10221E0000000000000000000000000000000000B0
:10222E0000000000000000000000000000000000A0
:10223E0000000000000000043CE000000000000070
:10224E00E03C04000000FFFF060203FFFE0602034F
:10225E00FFFE000000033EF00000F03F0300000010
:10226E0000000F0F0000000F0F0000000F0F000006
:10227E00000000010F0F0100000000000000000030
:10228E000000000000000000000000000000000040
:10229E000000000000000000000000000000000030
:1022AE000000000000000000000000000000000020
:1022BE000000000000000000000000000000000010
:1022CE000000000000000000000000000000000000
:1022DE0000000000000000000000000000000000F0
:1022EE0000000000000000000000000000000000E0
:1022FE0000000000000000000000000000000000D0
:10230E0000000000000000000000000000000000BF
:10231E0000000000000000000000000000000000AF
:10232E00000000000000000000000000000000009F
:10233E00000000000000000000000000000000008F
:10234E00000000000000000000000000000000007F
:10235E00000000000000000000000000000000006F
:10236E00000000000000000000000000000000005F
:10237E00000000000000000000000000000000004F
:10238E00000000000000000000000000000000003F
:10239E00000000000000000000000000000000002F
:1023AE00000000000000000000000000000000001F
:1023BE00000000000000000000000000000000000F
:1023CE0000000000000000000000000000000000FF
:1023DE0000000000000000000000000000000000EF
:1023EE0000000000000000000000000000000000DF
:1023FE0000000000000000000000000000000000CF
:10240E0000000000000000000000000000000000BE
:10241E0000000000000000000000000000000000AE
:10242E00000000000000000000000000000000009E
:10243E00000000000000000000000000000000008E
:10244E00000000000000000000000000000000007E
:08245E00000000000000000076
:1033DD0041004D00410049004100470042004A00B4
:0133ED0000DF
:102E6600FF1228A51232E0900041E0FCA3E0FDA38A
:102E7600E0FEA3E0FF227D207C41E4FFFE900041BE
:102E8600E0F8A3E0F9A3E0FAA3E0FB223EF583E431
:102E960093900045F0123329900023E0FF90004DF7
:102EA600E0C39F22123294900047E0FF900049E071
:102EB600C39F229000027401F090000C7414F090ED
:102EC6000046740CF0122B72122F781231B0740176
:102ED600900002F090000C2290004AE0FEA3E0224F
:102EE600E0FF7E007C00122830AC06AD07E4122716
:102EF60076A804A905AA06AB0722C2B3D2B5C2B406
:102F0600900038E0F5A0D2B3229000030228A590E5
:102F160000070228A51224699000410228A5900006
:102F26000CEFF01231E40FEFD3947F2275A0FFC2AD
:102F360096D297C2B5D2B4D2B3221231E49000022F
:102F4600E004F0E0D3221232E0900041E0FCA3E07E
:102F5600FDA3E0FEA3E0227414F0740A900046F08C
:102F6600022B7212340E90004522900023F090003E
:022F76001E2219
:03000B00023215A9
:10321500C0E0C083C082C0D0C2AFC28C900001E0C4
:10322500D39400400D758C3C758AAFE014F0D28CB8
:0B323500D2AFD0D0D082D083D0E032E6
:0F32BB009000017401F01232CA7401900001F00A
:1032CA00758C3C758AAFD28CD2AFD2A9900001E03E
:0632DA00D3940050F7221E
:10330500122F3220A7FDC2B3122F040000000000C7
:10331500000000000000000000000000000000C2E6
:04332500B3C2972276
:1032400075A0FFC297D296122F3920A7FDC2B312E4
:103250002F0400000000000000000000000000003B
:0B326000000000000000C2B3C2962274
:10334C00122F3220A7FD122F0000000000000000F9
:10335C0000000000000000000000000000C2B3C22A
:02336C009722A6
:10326B0075A0FFC297D296122F3920A7FD122F00FF
:10327B000000000000000000000000000000000043
:09328B0000000000C2B3C296224B
:0C340E0090003874C0F012330502324008
:0F33FF00900038743FF012330512324002340E42
:1033EF00900002E044B8900038F0123305023240EA
:10336E0090000CE04440900038F0900037E0B4013B
:0F337E0003123305900019E0B40103123240220C
:10338D00900045E0900038F0900037E0B401031252
:0D339D00334C900019E0B4010312326B2292
:1031E40090000CE0D3943F500D9000377401F0E44C
:1031F400900019F080129000197401F0E4900037E7
:10320400F090000CE024C0F01233EF12336E02335E
:013214008D2C
:1033AA00E4FF12340EE4900045F0900002F0E4FFCE
:0D33BA00122F2440FB122F43940740F222F3
:1030BF00E4FF90004FF0122F697403F0E4900002C8
:1030CF00F0122F2440FB122F697403F0900002744A
:1030DF0007F0E4FF122F2440FB122F6974FFF0E476
:1030EF0090000CF0900002F0122F40940640F990DF
:1030FF00000CE004F0E4122ED6E0D3940140E91264
:10310F002F6974FFF07F7EE4900002F090000CEFC7
:10311F00F0122F40940640F40F90000CEFF0D39470
:04312F007F40E422D7
:0C3175009000237410F0741990001EF0FC
:1031810090001EE0FF5407FED39400400BEF9EFF1A
:10319100131313541F04800A90001EE0FF1313132E
:0F31A100541F900047F090000CE090004CF0227B
:103329001231E490004DE004F090004BE004F0709D
:103339000690004AE004F090004CE004F0E09000B0
:033349000CF02263
:10329400900049E004F0900002E004F0E490004D56
:1032A400F090004CE0FF900023E0FEC3EF9E9000FE
:0732B4004CF090000CF02229
:092B6900745AF0740D900046F05E
:102B7200E4900047F090004AF0A3F0900049F090F2
:102B8200004DF0900046E07016123175122EDE24D0
:102B92000EF5827400122E9240F2122EAA40ED908F
:102BA2000046E064017016123175122EDE249EF585
:102BB200827401122E9240F2122EAA40ED9000462B
:102BC200E064027016123175122EDE242EF5827424
:102BD20003122E9240F2122EAA40ED900046E064BB
:102BE200037016123175122EDE24BEF582740412A1
:102BF2002E9240F2122EAA40ED900046E06404703C
:102C020016123175122EDE244EF5827406122E92A1
:102C120040F2122EAA40ED900046E06405701612B2
:102C22003175122EDE24DEF5827407122E9240F2E6
:102C3200122EAA40ED900046E0640670161231751D
:102C4200122EDE246EF5827409122E9240F2122E9A
:102C5200AA40ED900046E064077016123175122EFC
:102C6200DE24FEF582740A122E9240F2122EAA403F
:102C7200ED900046E064087016123175122EDE24C3
:102C82008EF582740C122E9240F2122EAA40ED9012
:102C92000046E064097016123175122EDE241EF50C
:102CA20082740E122E9240F2122EAA40ED9000462D
:102CB200E0640A701E9000237457F0741012317D84
:102CC200122EDE24AEF582740F122E9240F2122ED4
:102CD200AA40ED900046E0640C701E7464122F70DE
:102CE200741EF0123181122EDE241EF5827415122A
:102CF2002E9240F2122EAA40ED900046E0640D7032
:102D02001E7410122F707416F0123181122EDE24EE
:102D1200D6F5827420122E9240F2122EAA40ED9025
:102D22000046E0640E7022900023741CF090001E96
:102D32007414F0123181122EDE2436F582742212BE
:0A2D42002E9240F2122EAA40ED225C
:1033C700E4F5A8C295D295758E01758911C28CC294
:0633D7008ED2A9D2AB2248
:1032E00075BCC8E4FF0FEFB41EFBAFBDEF75F00473
:1032F000A4ADBE7C002DFDEC35F0FCE412277690E9
:0533000000410228A5B8
:1031B00012340E122ED47414F0900034E0122B6EE0
:1031C00012340E122ED47428F0900035E0122B6EBB
:1031D00012340E122ED4743CF0900036E09000466B
:0431E000F0022B725C
:102F7800122E7C12255E1227AF7C007D0A12284291
:102F8800C3ED9405EC94004010122E6DE4FBFA7921
:102F980080783F12246D122F1E7DC87C42122E802D
:102FA800122704E44034FBFA79C87842122E6D12D5
:102FB80026671227AF900034EFF0122E6DC004C0C0
:102FC80005C006C0079000347D64122EE6D007D0F5
:102FD80006D005D004122F1B8004900034F0122E66
:102FE8007C122704E44034FBFA79207841122E6DD4
:102FF8001226671227AF900035EFF0122E6DC0042D
:10300800C005C006C0079000357D0A122EE6D0071D
:10301800D006D005D004122F1B8004900035F01282
:0B3028002E6D1227AF900036EFF02253
:10313300122F4C90000D122E669000111228A5122A
:103143002F4C900015122E6690001A122E679000D5
:103153001F122E67900024122E67900028122E67EC
:1031630090002C122E67900030122E6790003D02C3
:0231730028A58D
:0C28E200E4F5A2759D011232E0123133C2
:1028EE00900011122E7090000D122E861227045099
:1028FE0005900011800390000D122E70122F0F9074
:10290E000015122E70900003122E86122704500905
:10291E00900015122E70122F0F90001A122E70901A
:10292E000003122E86122704500990001A122E70E0
:10293E00122F0F90001F122E70900003122E86126F
:10294E002704500990001F122E70122F0F90002492
:10295E00122E70900003122E86122704500990003A
:10296E0024122E70122F0F900028122E709000033A
:10297E00122E861227045009900028122E70122F44
:10298E000F90002C122E70900003122E8612270428
:10299E00500990002C122E70122F0F900030122E14
:1029AE0070900003122E86122704500990003012E8
:1029BE002E70122F0F90003D122E70900003122ECB
:1029CE0086122704500990003D122E70122F0F9080
:1029DE000011122E7090000D122E86122704600721
:1029EE004005900011800390000D122E70122F15CD
:1029FE00900015122E70900007122E86122704607A
:102A0E000B4009900015122E70122F1590001A12FD
:102A1E002E70900007122E86122704600B4009902C
:102A2E00001A122E70122F1590001F122E70900089
:102A3E0007122E86122704600B400990001F122EDB
:102A4E0070122F15900024122E70900007122E86F1
:102A5E00122704600B4009900024122E70122F15BD
:102A6E00900028122E70900007122E8612270460F6
:102A7E000B4009900028122E70122F1590002C1268
:102A8E002E70900007122E86122704600B400990BC
:102A9E00002C122E70122F15900030122E709000F6
:102AAE0007122E86122704600B4009900030122E5A
:102ABE0070122F1590003D122E70900007122E8668
:102ACE00122704600B400990003D122E70122F1534
:102ADE00900011122E7090000D122E8612246D9001
:102AEE000015122E8612246D90001A122E861224B4
:102AFE006D90001F122E8612246D900024122E86C9
:102B0E0012246D900028122E8612246D90002C1225
:102B1E002E8612246D900030122E8612246D900097
:102B2E003D122E8612246DC004C005C006C007904B
:102B3E000007122E70900003122E8612246D122E94
:102B4E00F7D007D006D005D004122469E4FBFAF9B9
:0B2B5E0078411226679000410228A574
:102D4C001233C7E4F580D2AFC297C296C2B3122E2B
:102D5C005C1228E2122E6DE4FBFA79A07840122561
:102D6C005E122F1E7F007EC07D797C44122E831252
:102D7C002704400A9000411228B14479C000122E59
:102D8C00B9745AF0740E122B6E74041232C630B72A
:102D9C00C09000411228B100000000122EB9122B75
:102DAC006912340E7405122ED6122F5D122E5C127F
:102DBC0028E2122E6D9000391228A5E4F59DF5BC81
:102DCC009000411228B100000000122EB9122B699C
:102DDC0012340E9000027405F090000C122F5D302E
:102DEC00B6CA1228E2900039122E70122E831227C6
:102DFC0004900041400E122E70900039122E861253
:102E0C002F1B80071228B100000000E4FFFEFD7CA0
:102E1C0040122E83122704400F122E6DE4FBFAF998
:102E2C007840122667122F1E122ED47414F0740CD4
:102E3C00122F62122ED4122B69122F781231B0126B
:102E4C0032BB1232BB20B69AE4F59DF5BC022DB80C
:0A2E5C001233FF1233AA1230BF2216
:1024660002281BE86480F8E933E83360110460F061
:10247600ED33EC337009E8FCE9FDEAFEEBFF2204DC
:1024860060DED3EB9FEA9EE99DE8C2E78CF0C2F7D7
:1024960095F0400CE8CCF8E9CDF9EACEFAEBCFFBA3
:1024A6001227E685D0F05804700320D5B3E80470EF
:1024B600075002B2D502282592D5EC0460F7E4CC89
:1024C600C0E0C398F8603B94186008400DD0E0FB6C
:1024D6000227FDE4FBFAC9FC8028E830E406E4C9DB
:1024E600FBE4CAFCE830E305E4C9CACBFCE85407C0
:1024F6006010F8C3E913F9EA13FAEB13FBEC13FCCB
:10250600D8F130F52FC3E49CFCEF9BFFEE9AFEED6D
:1025160099FDD0E0FBEF4E4D4C701222DB030228F2
:1025260022EC2CFCEF33FFEE33FEED33FDED30E70E
:10253600EB0227FDEF2BFFEE3AFEED39FDD0E0FB77
:1025460050130BBB0003022825ED13FDEE13FEEF1F
:0825560013FFEC13FC0227FD4A
:10255E00EC4D6011E8497017ED33EC3304600DE477
:10256E00FCFFFEFD22E933E8330470F802281B124B
:10257E0027E658046009E4CC24815006285009024D
:10258E002825284003022822C0E0EB4A7044B98077
:10259E0006D0E0FB022811EF4E701CBD8008EBFF49
:1025AE00EAFEE9FD80EBE98DF0A4FEE5F002264798
:1025BE00E9CDF9EAFEEBFFEF89F0A4FCE5F0CE8958
:1025CE00F0A42EFFE435F0CD89F0A42DFEE435F015
:1025DE008067EF4E7005BD80D780C3EF8BF0A4AC43
:1025EE00F0EE8BF0A42CFCE435F0F8EF8AF0A42C7E
:1025FE00E5F038FCE433CB8DF0A42CFCE5F03BF891
:10260E00EE8AF0A42CFCE5F038F8E433CF89F0A480
:10261E002CFCE5F038CF3400CE89F0A42FFFE5F086
:10262E003EFEE433C98DF0A42EFEE5F039CD8AF0DE
:10263E00A42FFFE5F03EFEE43DFD33D0E0FB500756
:10264E000BBB000F022825EC2CFCEF33FFEE33FE04
:06265E00ED33FD0227FD33
:10266400022825EC5D046005E85904700302281B68
:102674001227E6580460F6EC4860F2EC7004FDFEA4
:10268400FF22C860DB2481C85009C3986002500649
:102694000228229850CAF582E9294B4A7005AB8278
:1026A40002281175F0007C1A7880C3EF9BEE9AED36
:1026B40099400DC3EF9BFFEE9AFEED99FDE842F0C1
:1026C400DC23ACF0D0E0FFD0E0FED0E0FDAB822014
:1026D400E7101BEB60BAEC2CFCEF33FFEE33FEED9E
:1026E40033FD0227FDE803F830E705C0F075F0007C
:1026F400EF2FFFEE33FEED33FD40B830E7C280AA82
:1027040074F8CC6480CCC86480C8F582046043C388
:10271400EB9FF5F0EA9E42F0E99D42F0E89C45F01B
:1027240060305018E5825FFFE582F42B5582FB5040
:10273400210ABA001D09B90019088016E5825BFB5D
:10274400E582F42F5582FF50090EBE00050DBD0031
:10275400010CC3EB9FF5F0EA9E42F0E99D42F0E8DC
:0D2764009C45F06007CC4820E701B3EC2253
:1027710075F020800E75F010800575F0087D007EE3
:10278100007F003392D530D503122897EC334010E7
:10279100EF33FFEE33FEED33FDEC33FCD5F0ED22EC
:0E27A100E5F0247EA2D513CC92E7CDCEFF2228
:1027AF00EDD2E7CD33EC3392D524814006E4FFFE22
:1027BF00FDFC22FCE4CFCECDCC24E0501174FF8081
:1027CF00EDC3CC13CCCD13CDCE13CECF13CF04701E
:0727DF00F030D5DE0228975F
:1027E600E9D2E7C933E833F892D5EDD2E7CD33EC39
:0727F60033FC5002B2D522B2
:1027FD00EC30E7100FBF000C0EBE00080DBD00043D
:10280D000BEB6014A2D5EB13FCED92E7FD2274FFE8
:10281D00FCFDFEFF22E480F8A2D574FF13FC7D8041
:03282D00E480EF55
:10303F00022D4CE493A3F8E493A34003F68001F22E
:10304F0008DFF48029E493A3F85407240CC8C33392
:10305F00C4540F4420C8834004F456800146F6DF61
:10306F00E4800B01020408102040809033DDE47EE1
:10307F00019360BCA3FF543F30E509541FFEE49356
:10308F00A360010ECF54C025E060A840B8E493A31D
:10309F00FAE493A3F8E493A3C8C582C8CAC583CA48
:1030AF00F0A3C8C582C8CAC583CADFE9DEE780BE00
:0133EE0000DE
:10283000EF8DF0A4A8F0CF8CF0A428CE8DF0A42EBC
:02284000FE2276
:10284200BC000BBE0029EF8DF084FFADF022E4CC7A
:10285200F875F008EF2FFFEE33FEEC33FCEE9DEC43
:10286200984005FCEE9DFE0FD5F0E9E4CEFD22ED89
:10287200F8F5F0EE8420D21CFEADF075F008EF2FD3
:10288200FFED33FD4007985006D5F0F222C398FDC4
:052892000FD5F0EA2261
:0E289700C3E49FFFE49EFEE49DFDE49CFC2252
:0C28A500ECF0A3EDF0A3EEF0A3EFF022A6
:1028B100A8828583F0D083D0821228C81228C8123A
:1028C10028C81228C8E473E493A3C583C5F0C5835F
:1028D100C8C582C8F0A3C583C5F0C583C8C582C871
:0128E10022D4
:00000001FF
