:0300000002176D77
:0C176D00787FE4F6D8FD7581200217B4E7
:1000060000E0F0180818F0E000000F1F3020301F45
:100016000F000000000000000000000000000000CB
:1000260000000000000000000000000000000000CA
:1000360000000000000000000000000000000000BA
:1000460000000000000000000000000000000000AA
:10005600000000000000000000000000000000009A
:10006600000000000000000000000000000000008A
:10007600000000000000000000000000000000007A
:10008600000000000000000000000000000000006A
:10009600001010F8F8000000000020203F3F20204C
:1000A600000000000000000000000000000000004A
:1000B600000000000000000000000000000000003A
:1000C600000000000000000000000000000000002A
:1000D600000000000000000000000000000000001A
:1000E600000000000000000000000000000000000A
:1000F60000000000000000000000000000000000FA
:1001060000000000000000000000000000000000E9
:1001160000000000000000000000000000000000D9
:10012600007078080888F870000030382C262331D3
:100136003000000000000000000000000000000089
:1001460000000000000000000000000000000000A9
:100156000000000000000000000000000000000099
:100166000000000000000000000000000000000089
:100176000000000000000000000000000000000079
:100186000000000000000000000000000000000069
:100196000000000000000000000000000000000059
:1001A6000000000000000000000000000000000049
:1001B6000030388888C87830000018382020311F71
:1001C6000E0000000000000000000000000000001B
:1001D6000000000000000000000000000000000019
:1001E6000000000000000000000000000000000009
:1001F60000000000000000000000000000000000F9
:1002060000000000000000000000000000000000E8
:1002160000000000000000000000000000000000D8
:1002260000000000000000000000000000000000C8
:1002360000000000000000000000000000000000B8
:100246000000C0E030F8F8000000070724243F3F14
:100256002400000000000000000000000000000074
:100266000000000000000000000000000000000088
:100276000000000000000000000000000000000078
:100286000000000000000000000000000000000068
:100296000000000000000000000000000000000058
:1002A6000000000000000000000000000000000048
:1002B6000000000000000000000000000000000038
:1002C6000000000000000000000000000000000028
:1002D60000F8F88888880808000019392120311F9D
:1002E6000E000000000000000000000000000000FA
:1002F60000000000000000000000000000000000F8
:1003060000000000000000000000000000000000E7
:1003160000000000000000000000000000000000D7
:1003260000000000000000000000000000000000C7
:1003360000000000000000000000000000000000B7
:1003460000000000000000000000000000000000A7
:100356000000000000000000000000000000000097
:1003660000E0F0988898180000000F1F3120311F18
:100376000E00000000000000000000000000000069
:100386000000000000000000000000000000000067
:100396000000000000000000000000000000000057
:1003A6000000000000000000000000000000000047
:1003B6000000000000000000000000000000000037
:1003C6000000000000000000000000000000000027
:1003D6000000000000000000000000000000000017
:1003E6000000000000000000000000000000000007
:1003F60000383808C8F83808000000003F3F000001
:1004060000000000000000000000000000000000E6
:1004160000000000000000000000000000000000D6
:1004260000000000000000000000000000000000C6
:1004360000000000000000000000000000000000B6
:1004460000000000000000000000000000000000A6
:100456000000000000000000000000000000000096
:100466000000000000000000000000000000000086
:100476000000000000000000000000000000000076
:100486000070F8880888F87000001C3E2321233E7F
:100496001C0000000000000000000000000000003A
:1004A6000000000000000000000000000000000046
:1004B6000000000000000000000000000000000036
:1004C6000000000000000000000000000000000026
:1004D6000000000000000000000000000000000016
:1004E6000000000000000000000000000000000006
:1004F60000000000000000000000000000000000F6
:1005060000000000000000000000000000000000E5
:1005160000E0F0180818F0E0000000313322331F25
:100526000F000000000000000000000000000000B6
:1005360000000000000000000000000000000000B5
:1005460000000000000000000000000000000000A5
:100556000000000000000000000000000000000095
:100566000000000000000000000000000000000085
:10079600000000001031A7F6707E7E4A4A4A4A7E63
:1007A6007E000000000000FCFC2424FCFDA7A6FC43
:1007B600FC24242404000000000002FEFF417F7F89
:1007C600417F7F417F7F417F7F400080E07F9F8028
:1007D600C2466E3A123A2E66C2C04000000033335B
:1007E6000000000000000000000000000000000003
:1007F60000000000000000000000000000000000F3
:1008060000000000000000000000000000000000E2
:1008160000000000000000000000000000000000D2
:1009F600000000000E1111110EC0F0381C0C0C0C7A
:100A060018F8E000000000003FFFC080000000C0B2
:100A1600F878000000000000000103030303010052
:100A260000000000000000000000000000000000C0
:100A360000000000000000000000000000000000B0
:100A460000000000000000000000000000000000A0
:100A56000000000000000000000000000000000090
:100A66000000000000000000000000000000000080
:100A76000000000000000000000000000000000070
:100A86000000000000000000000000000000000060
:100A96000000000000000000000000000000000050
:100AA6000000000000000000000000000000000040
:100AB6000000000000000000000000000000000030
:100AC6000000000000000000000000000000000020
:100AD6000000000000000000000000000000000010
:100AE6000000000000000000000000000000000000
:100AF60000000000000000000000000000000000F0
:100B06000000003E3EE2E23E3EFEFE22222222E2BD
:100B1600E20200000404F4F4CCEDBF96BCECCCF485
:100B2600F606040000000000407F7F3F3F11117F62
:100B36007F42424242434340000000FEFE1A1E1618
:100B46001313161E7AF2FE7E0000000033330000F7
:100B5600000000000000000000000000000000008F
:100B6600000000000000000000000000000000007F
:100B7600000000000000000000000000000000006F
:100B8600000000000000000000000000000000005F
:100D76000000000000000000000000C0F0380C0475
:100D860004040C3C3C0004FCFCFCC00000C0FCFC61
:100D9600FC04001F7F60C0808080C070300080FF30
:100DA600FF831FFCFE1F81FFFF8000000000000084
:100DB600000000000000000000000000000000002D
:100DC600000000000000000000000000000000001D
:100DD600000000000000000000000000000000000D
:100DE60000000000000000000000000000000000FD
:100DF60000000000000000000000000000000000ED
:100E060000000000000000000000000000000000DC
:100E160000000000000000000000000000000000CC
:100E260000000000000000000000000000000000BC
:100E360000000000000000000000000000000000AC
:100E4600000000000000000000000000000000009C
:100E5600000000000000000000000000000000008C
:100E6600000000000000000000000000000000007C
:100E7600000000000000000000000000000000006C
:100E8600000000000000000000000000000000005C
:100E9600000000000000000000000000000000004C
:100EA600000000000000000000000000000000003C
:100EB600000000000000000000000000000000002C
:100EC600000000000000000000000000000000001C
:100ED600000000000000000000000000000000000C
:100EE60000000000000000000000000000000000FC
:100EF60000000000000000000000000000000000EC
:100F060000000000000000000000000000000000DB
:100F160000000000000000000000000000000000CB
:100F260000000000000000000000000000000000BB
:100F360000000000000000000000000000000000AB
:100F4600000000000000000000000000000000009B
:100F5600000000000000000000000000000000008B
:100F6600000000000000000000000000000000007B
:100F7600000000000000000000000000000000006B
:100F8600000000000000000000000000000000005B
:100F9600000000000000000000000000000000004B
:020FA600000049
:101C4C004200450000410048004100440041004270
:011C5C000087
:1013DD003EF583E49390003EF0121AF8900024E05D
:1013ED00FF900048E0C39F22121A65900042E0FF73
:1013FD00900044E0C39F2290000FF0740A900041CA
:10140D00F01211E8121C7D7405900003F090000F8E
:10141D002290000FF0740A900041F01211E8121C96
:10142D007D7401900003F090000F22F01219B41298
:10143D001C7D90003E22C2B3D2B5C2B4900033E001
:10144D00F5A0D2B32290003FE0FEA3E0FF22900072
:10145D0041F01211E8121C7D9000032275A0FFC20D
:10146D0096D297C2B5D2B4D2B32290000FEFF0123C
:10147D0019B40FEFD322900045E0FEA3E02212191C
:10148D00B4900003E004F0E0D322121B7B121C2168
:10149D007F017E00121BD57FCC22A4FFAEF0C3E0EE
:1014AD009FF090003FE09EF022740FF090000374C7
:0314BD0007F02213
:101A8C00758D3C758BAFD28EC28F308FFDC28F752A
:101A9C008D3C758BAFD28E900000E014F0E0D394A7
:041AAC000050E722DD
:101AB00012146920A7FDC2B31214470000000000F1
:101AC000000000000000000000000000000000C254
:041AD000B3C29722E4
:101A110075A0FFC297D29612147020A7FDC2B3120F
:101A2100144700000000000000000000000000005A
:0B1A3100000000000000C2B3C29622BB
:101B1B0012146920A7FD12144300000000000000FE
:101B2B0000000000000000000000000000C2B3C273
:021B3B009722EF
:101A3C0075A0FFC297D29612147020A7FD12144302
:101A4C00000000000000000000000000000000008A
:091A5C0000000000C2B3C2962292
:0C1C7D0090003374C0F0121AB0021A116B
:0F1C6E00900033743FF0121AB0121A11021C7D4D
:101C5E00900003E044B8900033F0121AB0021A114B
:101B3D0090000FE04440900033F0900031E0B4018C
:0F1B4D0003121AB090001EE0B40103121A112205
:101BB80090003EE0900033F0900031E0B401031251
:0D1BC8001B1B90001EE0B40103121A3C220A
:1019B40090000FE0D3943F500D9000317401F0E497
:1019C40090001EF0801290001E7401F0E49000312B
:1019D400F090000FE024C0F0121C5E121B3D021BAD
:0119E400B84A
:101B5C00E4FF121C7DE490003EF0900003F0E4FFE3
:0F1B6C00121477947F40F912148E940740F022E0
:10163400E4FF90004AF012143C7403F0E4900003B9
:10164400F0121477947F40F912143C1214B6E4900B
:10165400000F121438740FF0740712141674011268
:101664001438740FF07407121430747E1214381284
:1016740014B690000F747F121438740C1214B87FCF
:1016840002121477947D40F912143C74FFF0E49034
:10169400000FF0900003F012148B940640F99000B0
:1016A4000FE004F0E4121416E0D3940140E912149C
:1016B4003C74FFF07F7EE4900003F090000FEFF0A5
:1016C40012148B940640F40F90000FEFF0D3947F24
:0316D40040E422CD
:0C1947007409900024F07410900021F04E
:10195300900021E0FF5407FED39400400BEF9EFF5D
:10196300131313541F04800A900021E0FF13131371
:0F197300541F900042F090000FE0900047F022C8
:101AF8001219B4900048E004F0900046E004F07039
:101B080006900045E004F0900047E004F0E0900003
:031B18000FF022A9
:101A6500900044E004F0900003E004F0E4900048A6
:101A7500F0900047E0FF900024E0FEC3EF9E900049
:071A850047F090000FF02272
:0611E200F0ED900041F069
:1011E800E4900042F0900044F0A3F0A3F09000488F
:1011F800F0900041E0701D9000247409F0740D1205
:10120800194F900045A3E09000061213E140F31235
:1012180013F540EE900041E06401701512194790F3
:101228000045A3E09000961213E140F31213F54035
:10123800EE900041E064027015121947900045A332
:10124800E09001261213E140F31213F540EE9000EE
:1012580041E064037015121947900045A3E090011E
:10126800B61213E140F31213F540EE900041E0642A
:10127800047015121947900045A3E0900246121316
:10128800E140F31213F540EE900041E0640570155B
:10129800121947900045A3E09002D61213E140F3DB
:1012A8001213F540EE900041E064067015121947DC
:1012B800900045A3E09003661213E140F31213F582
:1012C80040EE900041E06407701512194790004500
:1012D800A3E09003F61213E140F31213F540EE90E9
:1012E8000041E064087015121947900045A3E0908A
:1012F80004861213E140F31213F540EE900041E02A
:1013080064097015121947900045A3E0900516125C
:1013180013E140F31213F540EE900041E0640A70C7
:10132800229000247414F09000217419F0121953BB
:1013380012148324A6F58274051213DD40F21213E9
:10134800F540ED900041E0640B70187426121949BD
:10135800121483249AF58274071213DD40F21213D3
:10136800F540ED900041E0640C7022900024740F69
:10137800F09000217412F012195312148324FAF514
:101388008274091213DD40F21213F540ED9000410A
:10139800E0640D701B900024742612194C121483FB
:1013A8002408F582740B1213DD40F21213F540ED98
:1013B800900041E0640E701C9000247418F012191B
:1013C8004F1214832468F582740D1213DD40F21253
:0513D80013F540ED22B9
:101BF100E4F5A8C295D295758E01758911C28CC282
:081C01008EC2A9C2ABC2A822E9
:101BD5007D717C0212116DAC06AD07D3ED9400EC5E
:0C1BE50094004007ED1D70F31C80F022FE
:101B7B00C2947F337E02EF1F70011EEF4E70F7D2BF
:0F1B8B00947E007F0AEF1F70011EEF4E70F7224D
:101C21002094FDA294B340FB7F0A7E00EF1F700158
:061C31001EEF4E70F722C9
:10198200C2947F0A7E00EF1F70011EEF4E70F7D2E5
:10199200947E007F0AEF1F70011EEF4E70F7A29433
:1019A20092007E007F0AEF1F70011EEF4E70F7A2B9
:0219B200002211
:101B9A00E4FD7C01121982E433FFC43333335480E9
:0E1BAA00FEEDC3134EFD0CECB409E9AF0522AD
:1017F90090004AE4F0A304F0EF139200EFC313FF43
:10180900300020C2947A007B05EB1B70011AEB4A69
:1018190070F7D2947A007B28EB1B70011AEB4A709F
:10182900F7801EC2947A007B46EB1B70011AEB4AC3
:1018390070F7D2947A007B0AEB1B70011AEB4A709D
:10184900F790004BE004F0700690004AE004F09035
:0C185900004AE07004A3E06409709D22C6
:0B1C89001214971217F97F440217F99C
:10186500E4F91214971217F97FBE1217F9121B9A91
:1018750090002FEFF0121B9AAE07A906A3EEF0E039
:10188500C43354E0F0E0C313F090002FE0FEF5F010
:1018950030F304A3E004F0EEC4540FFE90002FF0E3
:1018A500A3E02E900032F0E9C394804002E4F022D8
:10190300900032E0FFC3940A4011EF75F00A84FDA2
:1019130075F00AA4FEC3EF9EFC8004E4FDAC07123D
:1019230014627401F0743412141E74341211E2122E
:1019330014627401F0744412141E7444F0EC121116
:04194300E402163470
:101581001214527C007D0A12117FAF05EFC394053E
:101591001214527C007D0A400E12117FEF2401FFCC
:1015A100E43E90003F800712117F90003FEEF0A3D0
:1015B100EFF0121452C39464EE940040127C007D4B
:1015C1006412117FAB07EB75F0641214A78002E47B
:1015D100FB121452C3940AEE940040127C007D0A5F
:1015E10012117FAA07EA75F00A1214A78002E4FA21
:1015F10090003FA3E0FDEB70027B32121462740590
:10160100F074321214047432F0EB12145B7405F0AE
:1016110074411214047441F0900041EAF01211E88F
:10162100121634121411744B12140774501211E271
:031631000216346A
:101C3700121C89121865900032E0D3946340037434
:051C470063F002190327
:101AD400758DFC758B18D28EC28F308FFDC28F75B9
:101AE4008DFC758B18D28E900037E014F0E0D394FF
:041AF4000050E72295
:03000300021C09D3
:101C0900C0E0C083C082C28CC2AFC2A8900036E4D3
:081C1900F0D082D083D0E0324C
:1014C000C2A8C2AF9000367401F0900038E4F0A3D7
:1014D0007405F0B290000000000000000000000061
:1014E00000000000000000000000000000000000FC
:1014F00000000000000000000000000000000000EC
:1015000000000000000000000000000000000000DB
:1015100000000000000000000000000000000000CB
:1015200000000000000000000000000000000000BB
:1015300000000000000000000000000000000000AB
:10154000000000900039E024FFF0900038E034FF04
:10155000F0D3A3E09400900038E09400400302141C
:10156000D3E4F58CF58AD28C7F907E01EF1F700159
:101570001ED3EF9400EE940050F2D2AFD2A8D288DE
:011580002248
:1019E5007D207C4ED3ED9400EC94004007ED1D70F6
:1019F5000C1C80097C4E7D201214C0B283900036E9
:0C1A0500E0640160DFC2A8C2AFB2802222
:1018B5001214C01219E5900036E07039AF8CEFFEB6
:1018C500AD8A7C00E42DFFEC3E90003FF0A3EFF0E5
:1018D50090003FE0C313FCA3E013FDE41210B37BBB
:1018E500C57A2079B0783E120FA81210EC90003F0F
:0E18F500EEF0A3EFF09000377414F0021AD456
:1016D700E4900049F0121BF1C293C297C296C2B3BD
:1016E700121C6E121B5C12163412142B7405F07444
:1016F7000B121424745AF0740C12140AF0740D129D
:10170700145B7404F090000F745FF0900041740E46
:10171700F01211E8E490003FF0A3F0121581E49075
:101727000032F0121903121C379000007414F012E3
:101737001A8C121C37121C371218B5121452C39484
:10174700C8EE940040F2D3EF94E4EE940C50E9E035
:1017570024D8F090003FE034FFF0121581B287A241
:0617670087B3928680CFDB
:100FA800EC4D6011E8497017ED33EC3304600DE443
:100FB800FCFFFEFD22E933E8330470F802115812F1
:100FC800112358046009E4CC2481500628500902F2
:100FD800116228400302115FC0E0EB4A7044B980F7
:100FE80006D0E0FB02114EEF4E701CBD8008EBFFEF
:100FF800EAFEE9FD80EBE98DF0A4FEE5F002109130
:10100800E9CDF9EAFEEBFFEF89F0A4FCE5F0CE8923
:10101800F0A42EFFE435F0CD89F0A42DFEE435F0E0
:101028008067EF4E7005BD80D780C3EF8BF0A4AC0E
:10103800F0EE8BF0A42CFCE435F0F8EF8AF0A42C49
:10104800E5F038FCE433CB8DF0A42CFCE5F03BF85C
:10105800EE8AF0A42CFCE5F038F8E433CF89F0A44C
:101068002CFCE5F038CF3400CE89F0A42FFFE5F052
:101078003EFEE433C98DF0A42EFEE5F039CD8AF0AA
:10108800A42FFFE5F03EFEE43DFD33D0E0FB500722
:101098000BBB000F021162EC2CFCEF33FFEE33FEAA
:0610A800ED33FD02113AD8
:1010AE0075F020800E75F010800575F0087D007EBD
:1010BE00007F003392D530D5031211D4EC3340109B
:1010CE00EF33FFEE33FEED33FDEC33FCD5F0ED22C6
:0E10DE00E5F0247EA2D513CC92E7CDCEFF2202
:1010EC00EDD2E7CD33EC3392D524814006E4FFFEFC
:1010FC00FDFC22FCE4CFCECDCC24E0501174FF805B
:10110C00EDC3CC13CCCD13CDCE13CECF13CF0470F7
:07111C00F030D5DE0211D412
:10112300E9D2E7C933E833F892D5EDD2E7CD33EC12
:0711330033FC5002B2D5228B
:10113A00EC30E7100FBF000C0EBE00080DBD000416
:10114A000BEB6014A2D5EB13FCED92E7FD2274FFC2
:10115A00FCFDFEFF22E480F8A2D574FF13FC7D801B
:03116A00E480EF2F
:101779000216D7E493A3F8E493A34003F68001F299
:1017890008DFF48029E493A3F85407240CC8C33371
:10179900C4540F4420C8834004F456800146F6DF40
:1017A900E4800B0102040810204080901C4CE47E68
:1017B900019360BCA3FF543F30E509541FFEE49335
:1017C900A360010ECF54C025E060A840B8E493A3FC
:1017D900FAE493A3F8E493A3C8C582C8CAC583CA27
:1017E900F0A3C8C582C8CAC583CADFE9DEE780BEDF
:011C5D000086
:10116D00EF8DF0A4A8F0CF8CF0A428CE8DF0A42E96
:02117D00FE2250
:10117F00BC000BBE0029EF8DF084FFADF022E4CC54
:10118F00F875F008EF2FFFEE33FEEC33FCEE9DEC1D
:10119F00984005FCEE9DFE0FD5F0E9E4CEFD22ED63
:1011AF00F8F5F0EE8420D21CFEADF075F008EF2FAD
:1011BF00FFED33FD4007985006D5F0F222C398FD9E
:0511CF000FD5F0EA223B
:0E11D400C3E49FFFE49EFEE49DFDE49CFC222C
:00000001FF
